{
  "transactions": [
    {
      "hash": "0xe6e8d8fbdad4d75f59b5c8871d1487ae86e7ae16a1e9a8d37c7fa08faf92702b",
      "transactionType": "CALL",
      "contractName": null,
      "contractAddress": "0xd3b7a4128eaeb87589d9a6a840498962565d46b8",
      "function": "executeTransaction(bytes32)",
      "arguments": [
        "0xa9399236d6f45df44cb3def9b65c4624e685177ce8d90272c6d5b79643f2cae3"
      ],
      "transaction": {
        "from": "0xeb9dec5fffc5ecd8cd5a337895b3a7173c0ac5a1",
        "to": "0xd3b7a4128eaeb87589d9a6a840498962565d46b8",
        "gas": "0x31318",
        "value": "0x0",
        "input": "0xc69ed5f2a9399236d6f45df44cb3def9b65c4624e685177ce8d90272c6d5b79643f2cae3",
        "nonce": "0x84",
        "chainId": "0xaa36a7"
      },
      "additionalContracts": [],
      "isFixedGasLimit": false
    },
    {
      "hash": "0xafef06b4799df4a0a9be7a375c822afb4832ae8bc51d497fdff47c934e9a0ce4",
      "transactionType": "CALL",
      "contractName": null,
      "contractAddress": "0xd3b7a4128eaeb87589d9a6a840498962565d46b8",
      "function": "executeTransaction(bytes32)",
      "arguments": [
        "0x6a641d2cee0a6887e75fb2354aa2eadb2505977a6c62110dd9416ce902d38f31"
      ],
      "transaction": {
        "from": "0xeb9dec5fffc5ecd8cd5a337895b3a7173c0ac5a1",
        "to": "0xd3b7a4128eaeb87589d9a6a840498962565d46b8",
        "gas": "0x2c84b",
        "value": "0x0",
        "input": "0xc69ed5f26a641d2cee0a6887e75fb2354aa2eadb2505977a6c62110dd9416ce902d38f31",
        "nonce": "0x85",
        "chainId": "0xaa36a7"
      },
      "additionalContracts": [],
      "isFixedGasLimit": false
    },
    {
      "hash": "0x95d625e1818c90bb63e088d4e9b7c19c18a10bf8e5513b5ec591a428ea1bd0f2",
      "transactionType": "CALL",
      "contractName": null,
      "contractAddress": "0xd3b7a4128eaeb87589d9a6a840498962565d46b8",
      "function": "executeTransaction(bytes32)",
      "arguments": [
        "0xe129ee4d0dad66350d6f8015fe22213fdcebb38ec93e0a088979746cb39d2209"
      ],
      "transaction": {
        "from": "0xeb9dec5fffc5ecd8cd5a337895b3a7173c0ac5a1",
        "to": "0xd3b7a4128eaeb87589d9a6a840498962565d46b8",
        "gas": "0x2c8ac",
        "value": "0x0",
        "input": "0xc69ed5f2e129ee4d0dad66350d6f8015fe22213fdcebb38ec93e0a088979746cb39d2209",
        "nonce": "0x86",
        "chainId": "0xaa36a7"
      },
      "additionalContracts": [],
      "isFixedGasLimit": false
    },
    {
      "hash": "0x01b8c32c94167123259ae1e1ceb959d3fefee211728cad88eb4f3e9a2734198f",
      "transactionType": "CALL",
      "contractName": null,
      "contractAddress": "0xd3b7a4128eaeb87589d9a6a840498962565d46b8",
      "function": "executeTransaction(bytes32)",
      "arguments": [
        "0x860ec424de94a6598c21b1f0ca756d8198d0d4e05a3a36d994916be5da7c88ce"
      ],
      "transaction": {
        "from": "0xeb9dec5fffc5ecd8cd5a337895b3a7173c0ac5a1",
        "to": "0xd3b7a4128eaeb87589d9a6a840498962565d46b8",
        "gas": "0x259fd",
        "value": "0x0",
        "input": "0xc69ed5f2860ec424de94a6598c21b1f0ca756d8198d0d4e05a3a36d994916be5da7c88ce",
        "nonce": "0x87",
        "chainId": "0xaa36a7"
      },
      "additionalContracts": [],
      "isFixedGasLimit": false
    },
    {
      "hash": "0xd577b885b6059685ab6df63062b7045eb8ebb93ab85bd509c53cdfa17d5a116e",
      "transactionType": "CALL",
      "contractName": null,
      "contractAddress": "0xd3b7a4128eaeb87589d9a6a840498962565d46b8",
      "function": "executeTransaction(bytes32)",
      "arguments": [
        "0xaa37ed4d409620757c93a60640c24db5d65c86cfcf75f4e7abf4c3a3a7884cf6"
      ],
      "transaction": {
        "from": "0xeb9dec5fffc5ecd8cd5a337895b3a7173c0ac5a1",
        "to": "0xd3b7a4128eaeb87589d9a6a840498962565d46b8",
        "gas": "0x2c85a",
        "value": "0x0",
        "input": "0xc69ed5f2aa37ed4d409620757c93a60640c24db5d65c86cfcf75f4e7abf4c3a3a7884cf6",
        "nonce": "0x88",
        "chainId": "0xaa36a7"
      },
      "additionalContracts": [],
      "isFixedGasLimit": false
    },
    {
      "hash": "0x7e7b5ad0e5421b0ea0c94d27c49e3ea2b5d85a8f491f4a7a2dd10306b49c97ae",
      "transactionType": "CALL",
      "contractName": null,
      "contractAddress": "0xd3b7a4128eaeb87589d9a6a840498962565d46b8",
      "function": "executeTransaction(bytes32)",
      "arguments": [
        "0xd7d11a87587e88b5f467bc8c282f26c8670a18d60c712ff6c0c5824e9ad7a4c0"
      ],
      "transaction": {
        "from": "0xeb9dec5fffc5ecd8cd5a337895b3a7173c0ac5a1",
        "to": "0xd3b7a4128eaeb87589d9a6a840498962565d46b8",
        "gas": "0x2f1d7",
        "value": "0x0",
        "input": "0xc69ed5f2d7d11a87587e88b5f467bc8c282f26c8670a18d60c712ff6c0c5824e9ad7a4c0",
        "nonce": "0x89",
        "chainId": "0xaa36a7"
      },
      "additionalContracts": [],
      "isFixedGasLimit": false
    },
    {
      "hash": "0xb9ed65b8132dee1a25829efe347ff678d8e7e8ced3d1e3c8f682039d742b3780",
      "transactionType": "CALL",
      "contractName": null,
      "contractAddress": "0xd3b7a4128eaeb87589d9a6a840498962565d46b8",
      "function": "executeTransaction(bytes32)",
      "arguments": [
        "0x5eeebe7e389fe04fb2c39a2006dee5bd3ca9a9066c8dc763a1f5d5639b97b157"
      ],
      "transaction": {
        "from": "0xeb9dec5fffc5ecd8cd5a337895b3a7173c0ac5a1",
        "to": "0xd3b7a4128eaeb87589d9a6a840498962565d46b8",
        "gas": "0x2c88d",
        "value": "0x0",
        "input": "0xc69ed5f25eeebe7e389fe04fb2c39a2006dee5bd3ca9a9066c8dc763a1f5d5639b97b157",
        "nonce": "0x8a",
        "chainId": "0xaa36a7"
      },
      "additionalContracts": [],
      "isFixedGasLimit": false
    },
    {
      "hash": "0xc6f81d67bd6eff4fb549ebecbcd98cccfe61734b3ed50fec62dec292fd7d0fe2",
      "transactionType": "CALL",
      "contractName": null,
      "contractAddress": "0xd3b7a4128eaeb87589d9a6a840498962565d46b8",
      "function": "executeTransaction(bytes32)",
      "arguments": [
        "0x097ce93169dfa15ca4f0c95213977a9082cafff5c1a04e0ff38f14d7999a8d73"
      ],
      "transaction": {
        "from": "0xeb9dec5fffc5ecd8cd5a337895b3a7173c0ac5a1",
        "to": "0xd3b7a4128eaeb87589d9a6a840498962565d46b8",
        "gas": "0x272e1",
        "value": "0x0",
        "input": "0xc69ed5f2097ce93169dfa15ca4f0c95213977a9082cafff5c1a04e0ff38f14d7999a8d73",
        "nonce": "0x8b",
        "chainId": "0xaa36a7"
      },
      "additionalContracts": [],
      "isFixedGasLimit": false
    },
    {
      "hash": "0x516c6e707e7e5243c93ff50239dd6855c2d7aac563ea1d907ee2ef57e53fb861",
      "transactionType": "CALL",
      "contractName": null,
      "contractAddress": "0xd3b7a4128eaeb87589d9a6a840498962565d46b8",
      "function": "executeTransaction(bytes32)",
      "arguments": [
        "0x366690a0e3ff439c60bd2107ea1c405ce767dba8a0c69e5d72fa7c8211a2a507"
      ],
      "transaction": {
        "from": "0xeb9dec5fffc5ecd8cd5a337895b3a7173c0ac5a1",
        "to": "0xd3b7a4128eaeb87589d9a6a840498962565d46b8",
        "gas": "0x2c8cf",
        "value": "0x0",
        "input": "0xc69ed5f2366690a0e3ff439c60bd2107ea1c405ce767dba8a0c69e5d72fa7c8211a2a507",
        "nonce": "0x8c",
        "chainId": "0xaa36a7"
      },
      "additionalContracts": [],
      "isFixedGasLimit": false
    },
    {
      "hash": "0xfe0be2bfed1238be826efe56d925f8bc60ce8418b7f0aeff6aeb5905dadf8ca6",
      "transactionType": "CALL",
      "contractName": null,
      "contractAddress": "0xd3b7a4128eaeb87589d9a6a840498962565d46b8",
      "function": "executeTransaction(bytes32)",
      "arguments": [
        "0x65f98f061ae4282cfd9e3738a3b6759f5c35fa44f7edcfa1c963743b84c41b00"
      ],
      "transaction": {
        "from": "0xeb9dec5fffc5ecd8cd5a337895b3a7173c0ac5a1",
        "to": "0xd3b7a4128eaeb87589d9a6a840498962565d46b8",
        "gas": "0x2c82e",
        "value": "0x0",
        "input": "0xc69ed5f265f98f061ae4282cfd9e3738a3b6759f5c35fa44f7edcfa1c963743b84c41b00",
        "nonce": "0x8d",
        "chainId": "0xaa36a7"
      },
      "additionalContracts": [],
      "isFixedGasLimit": false
    },
    {
      "hash": "0x092c782a8d3cd06d607d106c959cb35e974ed07e14bd708663350f6741652dbe",
      "transactionType": "CALL",
      "contractName": null,
      "contractAddress": "0xd3b7a4128eaeb87589d9a6a840498962565d46b8",
      "function": "executeTransaction(bytes32)",
      "arguments": [
        "0xf50516cb67069b26e669bf78e6fc1439d642b380f42117cd90c4ad27e4b7178f"
      ],
      "transaction": {
        "from": "0xeb9dec5fffc5ecd8cd5a337895b3a7173c0ac5a1",
        "to": "0xd3b7a4128eaeb87589d9a6a840498962565d46b8",
        "gas": "0x2c8b9",
        "value": "0x0",
        "input": "0xc69ed5f2f50516cb67069b26e669bf78e6fc1439d642b380f42117cd90c4ad27e4b7178f",
        "nonce": "0x8e",
        "chainId": "0xaa36a7"
      },
      "additionalContracts": [],
      "isFixedGasLimit": false
    },
    {
      "hash": "0x3a045229aa476eadc022cd4a9ed26c2e77814c58cf038963096b4938f1eb5dec",
      "transactionType": "CALL",
      "contractName": null,
      "contractAddress": "0xd3b7a4128eaeb87589d9a6a840498962565d46b8",
      "function": "executeTransaction(bytes32)",
      "arguments": [
        "0x0cee66322cc1ccb806ba9c479ed2e3d2ccf2a61fdf92c6748a2fd65bee9f0d37"
      ],
      "transaction": {
        "from": "0xeb9dec5fffc5ecd8cd5a337895b3a7173c0ac5a1",
        "to": "0xd3b7a4128eaeb87589d9a6a840498962565d46b8",
        "gas": "0x26a3d",
        "value": "0x0",
        "input": "0xc69ed5f20cee66322cc1ccb806ba9c479ed2e3d2ccf2a61fdf92c6748a2fd65bee9f0d37",
        "nonce": "0x8f",
        "chainId": "0xaa36a7"
      },
      "additionalContracts": [],
      "isFixedGasLimit": false
    },
    {
      "hash": "0xcfd456d2cab1bd857585555507b6f93677bcea9315cace6ac5d9934de57ff52e",
      "transactionType": "CALL",
      "contractName": null,
      "contractAddress": "0xd3b7a4128eaeb87589d9a6a840498962565d46b8",
      "function": "executeTransaction(bytes32)",
      "arguments": [
        "0x8284289bc0d52a5b2bf01b823026dc04cf34ac1b04bf3909a40d4e920b74854a"
      ],
      "transaction": {
        "from": "0xeb9dec5fffc5ecd8cd5a337895b3a7173c0ac5a1",
        "to": "0xd3b7a4128eaeb87589d9a6a840498962565d46b8",
        "gas": "0x2c886",
        "value": "0x0",
        "input": "0xc69ed5f28284289bc0d52a5b2bf01b823026dc04cf34ac1b04bf3909a40d4e920b74854a",
        "nonce": "0x90",
        "chainId": "0xaa36a7"
      },
      "additionalContracts": [],
      "isFixedGasLimit": false
    },
    {
      "hash": "0xe78ded6ba33b931ed41cd60a076a8f5a1073627381eacf764a000eec6af6786b",
      "transactionType": "CALL",
      "contractName": null,
      "contractAddress": "0xd3b7a4128eaeb87589d9a6a840498962565d46b8",
      "function": "executeTransaction(bytes32)",
      "arguments": [
        "0xf52a11f5698fa4645c4f0e7b37b28e23183550c9f3d698d488864de82353d161"
      ],
      "transaction": {
        "from": "0xeb9dec5fffc5ecd8cd5a337895b3a7173c0ac5a1",
        "to": "0xd3b7a4128eaeb87589d9a6a840498962565d46b8",
        "gas": "0x2c78e",
        "value": "0x0",
        "input": "0xc69ed5f2f52a11f5698fa4645c4f0e7b37b28e23183550c9f3d698d488864de82353d161",
        "nonce": "0x91",
        "chainId": "0xaa36a7"
      },
      "additionalContracts": [],
      "isFixedGasLimit": false
    },
    {
      "hash": "0x81ac01c878377ec37d1559980538f35a3315292a5d38d6a3588d9ee7891adfb2",
      "transactionType": "CALL",
      "contractName": null,
      "contractAddress": "0xd3b7a4128eaeb87589d9a6a840498962565d46b8",
      "function": "executeTransaction(bytes32)",
      "arguments": [
        "0x3ee0249d8e603d81e28e554e33e82cd8a04a78d219492421c536ade98ae31752"
      ],
      "transaction": {
        "from": "0xeb9dec5fffc5ecd8cd5a337895b3a7173c0ac5a1",
        "to": "0xd3b7a4128eaeb87589d9a6a840498962565d46b8",
        "gas": "0x2510c",
        "value": "0x0",
        "input": "0xc69ed5f23ee0249d8e603d81e28e554e33e82cd8a04a78d219492421c536ade98ae31752",
        "nonce": "0x92",
        "chainId": "0xaa36a7"
      },
      "additionalContracts": [],
      "isFixedGasLimit": false
    }
  ],
  "receipts": [
    {
      "status": "0x1",
      "cumulativeGasUsed": "0x12491ba",
      "logs": [
        {
          "address": "0x22e9780b0263cc6e1e3611f67f3607e34b8d4f55",
          "topics": [
            "0x367184f1bb13aa656fb065e5e2b1104b30f71206d03961639cac77f3a6b33176",
            "0x000000000000000000000000f74325f78ee5d80803bdf749957d6ab9a25fd005"
          ],
          "data": "0x",
          "blockHash": "0x5378c744e43876341cdd2fb37a0c227eadf7404d089a4d0f0c975b2e1cb9bf67",
          "blockNumber": "0x9dfb9b",
          "blockTimestamp": "0x69a2afbc",
          "transactionHash": "0xe6e8d8fbdad4d75f59b5c8871d1487ae86e7ae16a1e9a8d37c7fa08faf92702b",
          "transactionIndex": "0x68",
          "logIndex": "0x181",
          "removed": false
        },
        {
          "address": "0xd3b7a4128eaeb87589d9a6a840498962565d46b8",
          "topics": [
            "0xa74c8847d513feba22a0f0cb38d53081abf97562cdb293926ba243689e7c41ca"
          ],
          "data": "0xa9399236d6f45df44cb3def9b65c4624e685177ce8d90272c6d5b79643f2cae3",
          "blockHash": "0x5378c744e43876341cdd2fb37a0c227eadf7404d089a4d0f0c975b2e1cb9bf67",
          "blockNumber": "0x9dfb9b",
          "blockTimestamp": "0x69a2afbc",
          "transactionHash": "0xe6e8d8fbdad4d75f59b5c8871d1487ae86e7ae16a1e9a8d37c7fa08faf92702b",
          "transactionIndex": "0x68",
          "logIndex": "0x182",
          "removed": false
        }
      ],
      "logsBloom": "0x00001000000000000000000000000080000000000000000000000000000000000000000000000000000200000000000000000000000000000000004000000000000000000000000000000000000000000000000000040000000000000000000000000000000000000000000000000000200000000000000000000000000000008000000000100000000000000000000000000000000000000000100000000000000000000000000000000000000001000000000000000000000000000000000000000400000000000000000000000000000000000000002000000000000040000000000000022000000000000000000000000000000000000000000000000000",
      "type": "0x2",
      "transactionHash": "0xe6e8d8fbdad4d75f59b5c8871d1487ae86e7ae16a1e9a8d37c7fa08faf92702b",
      "transactionIndex": "0x68",
      "blockHash": "0x5378c744e43876341cdd2fb37a0c227eadf7404d089a4d0f0c975b2e1cb9bf67",
      "blockNumber": "0x9dfb9b",
      "gasUsed": "0x239d8",
      "effectiveGasPrice": "0x1374a4",
      "from": "0xeb9dec5fffc5ecd8cd5a337895b3a7173c0ac5a1",
      "to": "0xd3b7a4128eaeb87589d9a6a840498962565d46b8",
      "contractAddress": null
    },
    {
      "status": "0x1",
      "cumulativeGasUsed": "0x10cbd83",
      "logs": [
        {
          "address": "0x22e9780b0263cc6e1e3611f67f3607e34b8d4f55",
          "topics": [
            "0x0edefbea2abde43ca16323fe38f8fb4de530f85711a5a548f0548ceb7a5c12a1",
            "0x0000000000000000000000004c0a6060908a5bdbdcbc38ff04c570c2f6bfca07"
          ],
          "data": "0x",
          "blockHash": "0x941f2262746c462ccca01386685a67cf45cacb7b2dcbe530235b16a27ae94e12",
          "blockNumber": "0x9dfb9c",
          "blockTimestamp": "0x69a2afc8",
          "transactionHash": "0xafef06b4799df4a0a9be7a375c822afb4832ae8bc51d497fdff47c934e9a0ce4",
          "transactionIndex": "0x68",
          "logIndex": "0x173",
          "removed": false
        },
        {
          "address": "0xd3b7a4128eaeb87589d9a6a840498962565d46b8",
          "topics": [
            "0xa74c8847d513feba22a0f0cb38d53081abf97562cdb293926ba243689e7c41ca"
          ],
          "data": "0x6a641d2cee0a6887e75fb2354aa2eadb2505977a6c62110dd9416ce902d38f31",
          "blockHash": "0x941f2262746c462ccca01386685a67cf45cacb7b2dcbe530235b16a27ae94e12",
          "blockNumber": "0x9dfb9c",
          "blockTimestamp": "0x69a2afc8",
          "transactionHash": "0xafef06b4799df4a0a9be7a375c822afb4832ae8bc51d497fdff47c934e9a0ce4",
          "transactionIndex": "0x68",
          "logIndex": "0x174",
          "removed": false
        }
      ],
      "logsBloom": "0x00001000000000000000000000000000000000000000000000000000080000000000000000000000000200000000000000000000000000000000000000000000000000000000000000000000000000000000000000040000000000000000000000000000000000000000000000000000200000000000000000000400000000000000000000100000000002000000000000000000000000000000000000200020000000000000000000000000000001000000000000000000000000000000000000000400000000000000000000000000000000000000000000000000000040000000000000002000000000000000000000000000000000000001000000000000",
      "type": "0x2",
      "transactionHash": "0xafef06b4799df4a0a9be7a375c822afb4832ae8bc51d497fdff47c934e9a0ce4",
      "transactionIndex": "0x68",
      "blockHash": "0x941f2262746c462ccca01386685a67cf45cacb7b2dcbe530235b16a27ae94e12",
      "blockNumber": "0x9dfb9c",
      "gasUsed": "0x203b0",
      "effectiveGasPrice": "0x1374a3",
      "from": "0xeb9dec5fffc5ecd8cd5a337895b3a7173c0ac5a1",
      "to": "0xd3b7a4128eaeb87589d9a6a840498962565d46b8",
      "contractAddress": null
    },
    {
      "status": "0x1",
      "cumulativeGasUsed": "0xf8d833",
      "logs": [
        {
          "address": "0x22e9780b0263cc6e1e3611f67f3607e34b8d4f55",
          "topics": [
            "0xbf54ea83ad908567bc5ad3199eab9f6f191d26c28764b57f9927110b97a971fd",
            "0x000000000000000000000000d6a742fb016a3850414f9bffde1e14873882cc48"
          ],
          "data": "0x",
          "blockHash": "0x80ec1a9cc9a52c145624d6aab807fe7f4d6c4a8c41080f48e170614548c21e52",
          "blockNumber": "0x9dfb9d",
          "blockTimestamp": "0x69a2afd4",
          "transactionHash": "0x95d625e1818c90bb63e088d4e9b7c19c18a10bf8e5513b5ec591a428ea1bd0f2",
          "transactionIndex": "0x73",
          "logIndex": "0x166",
          "removed": false
        },
        {
          "address": "0xd3b7a4128eaeb87589d9a6a840498962565d46b8",
          "topics": [
            "0xa74c8847d513feba22a0f0cb38d53081abf97562cdb293926ba243689e7c41ca"
          ],
          "data": "0xe129ee4d0dad66350d6f8015fe22213fdcebb38ec93e0a088979746cb39d2209",
          "blockHash": "0x80ec1a9cc9a52c145624d6aab807fe7f4d6c4a8c41080f48e170614548c21e52",
          "blockNumber": "0x9dfb9d",
          "blockTimestamp": "0x69a2afd4",
          "transactionHash": "0x95d625e1818c90bb63e088d4e9b7c19c18a10bf8e5513b5ec591a428ea1bd0f2",
          "transactionIndex": "0x73",
          "logIndex": "0x167",
          "removed": false
        }
      ],
      "logsBloom": "0x00001000000000000000000000000000000000000000000000000000000000000000000000000000000200000000000000000000000000000000000000000000000000000000000000002000000000000000000000040000000000000000000000000000000000000000000000000000200000000000000000000000000000000000000000900080000000000000000000000000000000000000000000000000000000000001000000000000000001000000000000000000000000000000000000000400000000000000000000000000000000000000000000000000000040000000000000002000000000000000400040000000000000000000000000000000",
      "type": "0x2",
      "transactionHash": "0x95d625e1818c90bb63e088d4e9b7c19c18a10bf8e5513b5ec591a428ea1bd0f2",
      "transactionIndex": "0x73",
      "blockHash": "0x80ec1a9cc9a52c145624d6aab807fe7f4d6c4a8c41080f48e170614548c21e52",
      "blockNumber": "0x9dfb9d",
      "gasUsed": "0x203f7",
      "effectiveGasPrice": "0x1374a3",
      "from": "0xeb9dec5fffc5ecd8cd5a337895b3a7173c0ac5a1",
      "to": "0xd3b7a4128eaeb87589d9a6a840498962565d46b8",
      "contractAddress": null
    },
    {
      "status": "0x1",
      "cumulativeGasUsed": "0x150132b",
      "logs": [
        {
          "address": "0x22e9780b0263cc6e1e3611f67f3607e34b8d4f55",
          "topics": [
            "0x558fb0ca07c1470edb0073bf8a5c2f651d538e75814c12fc835d36304b9b0e6f"
          ],
          "data": "0x",
          "blockHash": "0x460ac6b90f1e1271905193036c6d5a91e06f50a4104eef15c409f3a7baff0e2c",
          "blockNumber": "0x9dfb9e",
          "blockTimestamp": "0x69a2afe0",
          "transactionHash": "0x01b8c32c94167123259ae1e1ceb959d3fefee211728cad88eb4f3e9a2734198f",
          "transactionIndex": "0x6b",
          "logIndex": "0x163",
          "removed": false
        },
        {
          "address": "0xd3b7a4128eaeb87589d9a6a840498962565d46b8",
          "topics": [
            "0xa74c8847d513feba22a0f0cb38d53081abf97562cdb293926ba243689e7c41ca"
          ],
          "data": "0x860ec424de94a6598c21b1f0ca756d8198d0d4e05a3a36d994916be5da7c88ce",
          "blockHash": "0x460ac6b90f1e1271905193036c6d5a91e06f50a4104eef15c409f3a7baff0e2c",
          "blockNumber": "0x9dfb9e",
          "blockTimestamp": "0x69a2afe0",
          "transactionHash": "0x01b8c32c94167123259ae1e1ceb959d3fefee211728cad88eb4f3e9a2734198f",
          "transactionIndex": "0x6b",
          "logIndex": "0x164",
          "removed": false
        }
      ],
      "logsBloom": "0x00001000000000000000000000000000000000000000000000000000000000000000000000000000000200000000000000000000000000000000000000000000000000000000000000000000000000000000000000040000000000000000000000000000000000000000000000000000200000000000000000000000000000000000000000100000000000000000000000000000000000000000080000000000000000000000000000000000000001000000010000000000000000000000000000000400000000000000000000000020000000000000000000000000000040000000000000002000000000000000000000000000000000000000000000000000",
      "type": "0x2",
      "transactionHash": "0x01b8c32c94167123259ae1e1ceb959d3fefee211728cad88eb4f3e9a2734198f",
      "transactionIndex": "0x6b",
      "blockHash": "0x460ac6b90f1e1271905193036c6d5a91e06f50a4104eef15c409f3a7baff0e2c",
      "blockNumber": "0x9dfb9e",
      "gasUsed": "0x1b3d5",
      "effectiveGasPrice": "0x1374a3",
      "from": "0xeb9dec5fffc5ecd8cd5a337895b3a7173c0ac5a1",
      "to": "0xd3b7a4128eaeb87589d9a6a840498962565d46b8",
      "contractAddress": null
    },
    {
      "status": "0x1",
      "cumulativeGasUsed": "0x133fe55",
      "logs": [
        {
          "address": "0xd6a742fb016a3850414f9bffde1e14873882cc48",
          "topics": [
            "0x9d910c9fad7f6caea97ddebdae1c9588dcbeee40ac58fbea43811e3554b6d727",
            "0x00000000000000000000000022e9780b0263cc6e1e3611f67f3607e34b8d4f55"
          ],
          "data": "0x",
          "blockHash": "0x1d331056710a4bd74905214c9594e478a650aa22aca48ca24445ab062cf7fb50",
          "blockNumber": "0x9dfb9f",
          "blockTimestamp": "0x69a2afec",
          "transactionHash": "0xd577b885b6059685ab6df63062b7045eb8ebb93ab85bd509c53cdfa17d5a116e",
          "transactionIndex": "0x77",
          "logIndex": "0x1a4",
          "removed": false
        },
        {
          "address": "0xd3b7a4128eaeb87589d9a6a840498962565d46b8",
          "topics": [
            "0xa74c8847d513feba22a0f0cb38d53081abf97562cdb293926ba243689e7c41ca"
          ],
          "data": "0xaa37ed4d409620757c93a60640c24db5d65c86cfcf75f4e7abf4c3a3a7884cf6",
          "blockHash": "0x1d331056710a4bd74905214c9594e478a650aa22aca48ca24445ab062cf7fb50",
          "blockNumber": "0x9dfb9f",
          "blockTimestamp": "0x69a2afec",
          "transactionHash": "0xd577b885b6059685ab6df63062b7045eb8ebb93ab85bd509c53cdfa17d5a116e",
          "transactionIndex": "0x77",
          "logIndex": "0x1a5",
          "removed": false
        }
      ],
      "logsBloom": "0x00000000000010000000000000100000000000000000000040000000000000000000000000000000000000000000000000000000000000000000000000000000000000000000000010000000000000000000000000040000000000000000000000000000000000000000000000000020000000000000000000000000000000000000000000100000000000000000000000000000000000001000000000000000000000000000000000000000000001000000000020000000000000000000000000000400000000000000000000000000000000000000000000000000040040040000000000002000000000000000000000000000000000000000000000000000",
      "type": "0x2",
      "transactionHash": "0xd577b885b6059685ab6df63062b7045eb8ebb93ab85bd509c53cdfa17d5a116e",
      "transactionIndex": "0x77",
      "blockHash": "0x1d331056710a4bd74905214c9594e478a650aa22aca48ca24445ab062cf7fb50",
      "blockNumber": "0x9dfb9f",
      "gasUsed": "0x203bc",
      "effectiveGasPrice": "0x1374a3",
      "from": "0xeb9dec5fffc5ecd8cd5a337895b3a7173c0ac5a1",
      "to": "0xd3b7a4128eaeb87589d9a6a840498962565d46b8",
      "contractAddress": null
    },
    {
      "status": "0x1",
      "cumulativeGasUsed": "0x11a490f",
      "logs": [
        {
          "address": "0xd6a742fb016a3850414f9bffde1e14873882cc48",
          "topics": [
            "0xbe09f8c8d068565a63fcfc0ed1f0ad896db081657942b1a474d1f7593bdbf3ef",
            "0x00000000000000000000000000000000000000000000000000000000000000fa"
          ],
          "data": "0x",
          "blockHash": "0xfd78ebab3d20d7ad9ac186a7e26030ad9d3a1558cd57645cc8b6c63c6de4ecb5",
          "blockNumber": "0x9dfba0",
          "blockTimestamp": "0x69a2aff8",
          "transactionHash": "0x7e7b5ad0e5421b0ea0c94d27c49e3ea2b5d85a8f491f4a7a2dd10306b49c97ae",
          "transactionIndex": "0x70",
          "logIndex": "0x1a3",
          "removed": false
        },
        {
          "address": "0xd3b7a4128eaeb87589d9a6a840498962565d46b8",
          "topics": [
            "0xa74c8847d513feba22a0f0cb38d53081abf97562cdb293926ba243689e7c41ca"
          ],
          "data": "0xd7d11a87587e88b5f467bc8c282f26c8670a18d60c712ff6c0c5824e9ad7a4c0",
          "blockHash": "0xfd78ebab3d20d7ad9ac186a7e26030ad9d3a1558cd57645cc8b6c63c6de4ecb5",
          "blockNumber": "0x9dfba0",
          "blockTimestamp": "0x69a2aff8",
          "transactionHash": "0x7e7b5ad0e5421b0ea0c94d27c49e3ea2b5d85a8f491f4a7a2dd10306b49c97ae",
          "transactionIndex": "0x70",
          "logIndex": "0x1a4",
          "removed": false
        }
      ],
      "logsBloom": "0x00080000000010000000008000000000000000000000000000000000000000000000000000000000000000000000000000000000000000000000000000000000000000000000000000000000000000000000000000040000000000000000000000000000000000000000000000000000000000100000000000000000000000000000000000100000000000020000000000000000000000001000000000000000000000000000000000000000000001000000000000000000000000000000080000000400000000000000000000000000000000000000000000000000040040000000000000002000000000000000000000000000000080000000000000000000",
      "type": "0x2",
      "transactionHash": "0x7e7b5ad0e5421b0ea0c94d27c49e3ea2b5d85a8f491f4a7a2dd10306b49c97ae",
      "transactionIndex": "0x70",
      "blockHash": "0xfd78ebab3d20d7ad9ac186a7e26030ad9d3a1558cd57645cc8b6c63c6de4ecb5",
      "blockNumber": "0x9dfba0",
      "gasUsed": "0x20373",
      "effectiveGasPrice": "0x1374a3",
      "from": "0xeb9dec5fffc5ecd8cd5a337895b3a7173c0ac5a1",
      "to": "0xd3b7a4128eaeb87589d9a6a840498962565d46b8",
      "contractAddress": null
    },
    {
      "status": "0x1",
      "cumulativeGasUsed": "0x16ac31f",
      "logs": [
        {
          "address": "0xd6a742fb016a3850414f9bffde1e14873882cc48",
          "topics": [
            "0x43b3f6f7240b5130368ce68c61e5809e45930fc96276cc0a8719a7f1d6f2a546",
            "0x000000000000000000000000eb9dec5fffc5ecd8cd5a337895b3a7173c0ac5a1"
          ],
          "data": "0x",
          "blockHash": "0x282ee50db19c0580d9e85c8ee705d018581c5ac306178b277bbafb190161764b",
          "blockNumber": "0x9dfba1",
          "blockTimestamp": "0x69a2b004",
          "transactionHash": "0xb9ed65b8132dee1a25829efe347ff678d8e7e8ced3d1e3c8f682039d742b3780",
          "transactionIndex": "0x81",
          "logIndex": "0x1ac",
          "removed": false
        },
        {
          "address": "0xd3b7a4128eaeb87589d9a6a840498962565d46b8",
          "topics": [
            "0xa74c8847d513feba22a0f0cb38d53081abf97562cdb293926ba243689e7c41ca"
          ],
          "data": "0x5eeebe7e389fe04fb2c39a2006dee5bd3ca9a9066c8dc763a1f5d5639b97b157",
          "blockHash": "0x282ee50db19c0580d9e85c8ee705d018581c5ac306178b277bbafb190161764b",
          "blockNumber": "0x9dfba1",
          "blockTimestamp": "0x69a2b004",
          "transactionHash": "0xb9ed65b8132dee1a25829efe347ff678d8e7e8ced3d1e3c8f682039d742b3780",
          "transactionIndex": "0x81",
          "logIndex": "0x1ad",
          "removed": false
        }
      ],
      "logsBloom": "0x00000000000010000000000000000000000000000800000000000000000000000000000000000000000000000000000000000000000000000000000000000000000000000000000000000400000000080000000000040000000000000000000000000000000000000000000000000000000000000000000000000000000000000000000000100000000000000000000000000000000000001000000000000000000000010000000000001000000001000000000000000000000000004000000000000400000000000000000000000000000000000000000000000000040040000000000000002000000000000000000000000000000000000000000000000000",
      "type": "0x2",
      "transactionHash": "0xb9ed65b8132dee1a25829efe347ff678d8e7e8ced3d1e3c8f682039d742b3780",
      "transactionIndex": "0x81",
      "blockHash": "0x282ee50db19c0580d9e85c8ee705d018581c5ac306178b277bbafb190161764b",
      "blockNumber": "0x9dfba1",
      "gasUsed": "0x203e0",
      "effectiveGasPrice": "0x1374a3",
      "from": "0xeb9dec5fffc5ecd8cd5a337895b3a7173c0ac5a1",
      "to": "0xd3b7a4128eaeb87589d9a6a840498962565d46b8",
      "contractAddress": null
    },
    {
      "status": "0x1",
      "cumulativeGasUsed": "0x1268aa2",
      "logs": [
        {
          "address": "0xd6a742fb016a3850414f9bffde1e14873882cc48",
          "topics": [
            "0xb92f7c0f425c4cb2e7da4dfaf6b6f2fd5c7521fb16f9a90e363da96a670668d4"
          ],
          "data": "0x",
          "blockHash": "0x5cba0eed199dc08ceddc2b16e7776d178c13d95dc7f116662824e82c0cbd303f",
          "blockNumber": "0x9dfba2",
          "blockTimestamp": "0x69a2b010",
          "transactionHash": "0xc6f81d67bd6eff4fb549ebecbcd98cccfe61734b3ed50fec62dec292fd7d0fe2",
          "transactionIndex": "0x6c",
          "logIndex": "0x125",
          "removed": false
        },
        {
          "address": "0xd3b7a4128eaeb87589d9a6a840498962565d46b8",
          "topics": [
            "0xa74c8847d513feba22a0f0cb38d53081abf97562cdb293926ba243689e7c41ca"
          ],
          "data": "0x097ce93169dfa15ca4f0c95213977a9082cafff5c1a04e0ff38f14d7999a8d73",
          "blockHash": "0x5cba0eed199dc08ceddc2b16e7776d178c13d95dc7f116662824e82c0cbd303f",
          "blockNumber": "0x9dfba2",
          "blockTimestamp": "0x69a2b010",
          "transactionHash": "0xc6f81d67bd6eff4fb549ebecbcd98cccfe61734b3ed50fec62dec292fd7d0fe2",
          "transactionIndex": "0x6c",
          "logIndex": "0x126",
          "removed": false
        }
      ],
      "logsBloom": "0x00000000000010000000000000000000000000000000000000000000000000000000000002000000000000000000000000000000000000000000000000000000000000000000000000000000000000000000000000040000000000000000000000000000000000000000000000000000008000000000000000000000000000000000000000100000000000000000000000000000000000001000000000000000000000001000000000000000000001000000000000000000000000000000000000000400000000000000000000000000000000000000000000000000040040000000000000002000000000000000000000000000000000000000000000000000",
      "type": "0x2",
      "transactionHash": "0xc6f81d67bd6eff4fb549ebecbcd98cccfe61734b3ed50fec62dec292fd7d0fe2",
      "transactionIndex": "0x6c",
      "blockHash": "0x5cba0eed199dc08ceddc2b16e7776d178c13d95dc7f116662824e82c0cbd303f",
      "blockNumber": "0x9dfba2",
      "gasUsed": "0x1aca3",
      "effectiveGasPrice": "0x1374a3",
      "from": "0xeb9dec5fffc5ecd8cd5a337895b3a7173c0ac5a1",
      "to": "0xd3b7a4128eaeb87589d9a6a840498962565d46b8",
      "contractAddress": null
    },
    {
      "status": "0x1",
      "cumulativeGasUsed": "0x1544586",
      "logs": [
        {
          "address": "0x79f2eb96ad7a5859007565b23b7cbb9c1217be40",
          "topics": [
            "0x9d910c9fad7f6caea97ddebdae1c9588dcbeee40ac58fbea43811e3554b6d727",
            "0x00000000000000000000000022e9780b0263cc6e1e3611f67f3607e34b8d4f55"
          ],
          "data": "0x",
          "blockHash": "0x03c441bf272bca80eecc0bfb138ea6930354713eac34ee3120b2454a7e31510e",
          "blockNumber": "0x9dfba3",
          "blockTimestamp": "0x69a2b01c",
          "transactionHash": "0x516c6e707e7e5243c93ff50239dd6855c2d7aac563ea1d907ee2ef57e53fb861",
          "transactionIndex": "0x74",
          "logIndex": "0x18b",
          "removed": false
        },
        {
          "address": "0xd3b7a4128eaeb87589d9a6a840498962565d46b8",
          "topics": [
            "0xa74c8847d513feba22a0f0cb38d53081abf97562cdb293926ba243689e7c41ca"
          ],
          "data": "0x366690a0e3ff439c60bd2107ea1c405ce767dba8a0c69e5d72fa7c8211a2a507",
          "blockHash": "0x03c441bf272bca80eecc0bfb138ea6930354713eac34ee3120b2454a7e31510e",
          "blockNumber": "0x9dfba3",
          "blockTimestamp": "0x69a2b01c",
          "transactionHash": "0x516c6e707e7e5243c93ff50239dd6855c2d7aac563ea1d907ee2ef57e53fb861",
          "transactionIndex": "0x74",
          "logIndex": "0x18c",
          "removed": false
        }
      ],
      "logsBloom": "0x00000000000000000000000000100000000000000000000040000000000000000000000000000000000000000000000000000000000000000000000000000000000000000000000010000000000000000000000000040000000000000000000000000000080000000000000000000020000000000000000000000000040000000000000000100000000000000000000000000000000000000000000000000000000000000000000000000000000001000001000020000000000000000000000000000400000000000000000000000000000000000000000000000000000040040000000000002000000000000000000000000000000000000000000000000000",
      "type": "0x2",
      "transactionHash": "0x516c6e707e7e5243c93ff50239dd6855c2d7aac563ea1d907ee2ef57e53fb861",
      "transactionIndex": "0x74",
      "blockHash": "0x03c441bf272bca80eecc0bfb138ea6930354713eac34ee3120b2454a7e31510e",
      "blockNumber": "0x9dfba3",
      "gasUsed": "0x20410",
      "effectiveGasPrice": "0x1374a2",
      "from": "0xeb9dec5fffc5ecd8cd5a337895b3a7173c0ac5a1",
      "to": "0xd3b7a4128eaeb87589d9a6a840498962565d46b8",
      "contractAddress": null
    },
    {
      "status": "0x1",
      "cumulativeGasUsed": "0x1d06655",
      "logs": [
        {
          "address": "0x79f2eb96ad7a5859007565b23b7cbb9c1217be40",
          "topics": [
            "0xa6e89bb6a4fade26b990911680abcd0671de1f88f67dfa718f2b654317309b5f",
            "0x00000000000000000000000000000000000000000000000000000000000000fa"
          ],
          "data": "0x",
          "blockHash": "0x6e85d373f8f1b84b6f635ae36d03fb30d67107a2af7bd548f40ceea7dc1f661c",
          "blockNumber": "0x9dfba4",
          "blockTimestamp": "0x69a2b028",
          "transactionHash": "0xfe0be2bfed1238be826efe56d925f8bc60ce8418b7f0aeff6aeb5905dadf8ca6",
          "transactionIndex": "0x8a",
          "logIndex": "0x1fe",
          "removed": false
        },
        {
          "address": "0xd3b7a4128eaeb87589d9a6a840498962565d46b8",
          "topics": [
            "0xa74c8847d513feba22a0f0cb38d53081abf97562cdb293926ba243689e7c41ca"
          ],
          "data": "0x65f98f061ae4282cfd9e3738a3b6759f5c35fa44f7edcfa1c963743b84c41b00",
          "blockHash": "0x6e85d373f8f1b84b6f635ae36d03fb30d67107a2af7bd548f40ceea7dc1f661c",
          "blockNumber": "0x9dfba4",
          "blockTimestamp": "0x69a2b028",
          "transactionHash": "0xfe0be2bfed1238be826efe56d925f8bc60ce8418b7f0aeff6aeb5905dadf8ca6",
          "transactionIndex": "0x8a",
          "logIndex": "0x1ff",
          "removed": false
        }
      ],
      "logsBloom": "0x00080000000000000000008000000000000000000000000000000000000001000000000000000000000000000000000000000000000000000000000000000000000000000000000000000000040000000000000000040000000000000000000000000000080000000000000000000000000000000000000000000000040000000000000000900000000000000000000000000000000000000000000000000000000000000000000000000000000001000001000000000000000000000000000000000400000000000000000000000000000000000000000000000000000040000000000000002000000000000000000000000000000080000000000000000000",
      "type": "0x2",
      "transactionHash": "0xfe0be2bfed1238be826efe56d925f8bc60ce8418b7f0aeff6aeb5905dadf8ca6",
      "transactionIndex": "0x8a",
      "blockHash": "0x6e85d373f8f1b84b6f635ae36d03fb30d67107a2af7bd548f40ceea7dc1f661c",
      "blockNumber": "0x9dfba4",
      "gasUsed": "0x2039c",
      "effectiveGasPrice": "0x1374a3",
      "from": "0xeb9dec5fffc5ecd8cd5a337895b3a7173c0ac5a1",
      "to": "0xd3b7a4128eaeb87589d9a6a840498962565d46b8",
      "contractAddress": null
    },
    {
      "status": "0x1",
      "cumulativeGasUsed": "0x1293840",
      "logs": [
        {
          "address": "0x79f2eb96ad7a5859007565b23b7cbb9c1217be40",
          "topics": [
            "0x5b9b195e7846adeb388f2dd1f59e3e1a15eb73674de08001799419476262ed91",
            "0x000000000000000000000000eb9dec5fffc5ecd8cd5a337895b3a7173c0ac5a1"
          ],
          "data": "0x",
          "blockHash": "0x2456a39ce349fce682372725d721ba19d863631969a469c58b7e778a65650397",
          "blockNumber": "0x9dfba5",
          "blockTimestamp": "0x69a2b034",
          "transactionHash": "0x092c782a8d3cd06d607d106c959cb35e974ed07e14bd708663350f6741652dbe",
          "transactionIndex": "0x68",
          "logIndex": "0x199",
          "removed": false
        },
        {
          "address": "0xd3b7a4128eaeb87589d9a6a840498962565d46b8",
          "topics": [
            "0xa74c8847d513feba22a0f0cb38d53081abf97562cdb293926ba243689e7c41ca"
          ],
          "data": "0xf50516cb67069b26e669bf78e6fc1439d642b380f42117cd90c4ad27e4b7178f",
          "blockHash": "0x2456a39ce349fce682372725d721ba19d863631969a469c58b7e778a65650397",
          "blockNumber": "0x9dfba5",
          "blockTimestamp": "0x69a2b034",
          "transactionHash": "0x092c782a8d3cd06d607d106c959cb35e974ed07e14bd708663350f6741652dbe",
          "transactionIndex": "0x68",
          "logIndex": "0x19a",
          "removed": false
        }
      ],
      "logsBloom": "0x00000000000000000000000000000000000000000800000000000000400000000000000000000000000000000000000000000000000000000000000000000000000000000000000000000000000000080000000000040000000000000000000000000000080000000000000000000000000000000000000000000000040000000000000000100000000000000000000000000000000000000000000000000000000000000000000000000000000001000001000000020000000000004000000000000400000000000000000000000000100000000000000000000000000040000000000000002000000000000000000000000000000000000000000000000000",
      "type": "0x2",
      "transactionHash": "0x092c782a8d3cd06d607d106c959cb35e974ed07e14bd708663350f6741652dbe",
      "transactionIndex": "0x68",
      "blockHash": "0x2456a39ce349fce682372725d721ba19d863631969a469c58b7e778a65650397",
      "blockNumber": "0x9dfba5",
      "gasUsed": "0x20400",
      "effectiveGasPrice": "0x1374a4",
      "from": "0xeb9dec5fffc5ecd8cd5a337895b3a7173c0ac5a1",
      "to": "0xd3b7a4128eaeb87589d9a6a840498962565d46b8",
      "contractAddress": null
    },
    {
      "status": "0x1",
      "cumulativeGasUsed": "0xffaeb3",
      "logs": [
        {
          "address": "0x79f2eb96ad7a5859007565b23b7cbb9c1217be40",
          "topics": [
            "0x9218db706a8335ac8df5dc7682eda15b973b3fca3f79040e26d0aef880d2797f"
          ],
          "data": "0x",
          "blockHash": "0xf0f250b5e3d0709a1ba357f92f88cdef436fbc5eafa1f276054f3bfb7004709d",
          "blockNumber": "0x9dfba6",
          "blockTimestamp": "0x69a2b040",
          "transactionHash": "0x3a045229aa476eadc022cd4a9ed26c2e77814c58cf038963096b4938f1eb5dec",
          "transactionIndex": "0x73",
          "logIndex": "0x144",
          "removed": false
        },
        {
          "address": "0xd3b7a4128eaeb87589d9a6a840498962565d46b8",
          "topics": [
            "0xa74c8847d513feba22a0f0cb38d53081abf97562cdb293926ba243689e7c41ca"
          ],
          "data": "0x0cee66322cc1ccb806ba9c479ed2e3d2ccf2a61fdf92c6748a2fd65bee9f0d37",
          "blockHash": "0xf0f250b5e3d0709a1ba357f92f88cdef436fbc5eafa1f276054f3bfb7004709d",
          "blockNumber": "0x9dfba6",
          "blockTimestamp": "0x69a2b040",
          "transactionHash": "0x3a045229aa476eadc022cd4a9ed26c2e77814c58cf038963096b4938f1eb5dec",
          "transactionIndex": "0x73",
          "logIndex": "0x145",
          "removed": false
        }
      ],
      "logsBloom": "0x00000000000000000000000000000000000000000000000000000000000000000000000000000000000000000000000000000000000000000000000000000000000000000000000000000010000000000000000000040000000000000000000000000000080000000000000000000000000000000000000000000000040002000000000000100000000000000000000000000000000000000000000000000000000000000000000000000000000001000001000000000000000000000000000000000400000000000000000000000000000001000000000000000000000040000000000000002000000000000000000000000000000000000000000000000000",
      "type": "0x2",
      "transactionHash": "0x3a045229aa476eadc022cd4a9ed26c2e77814c58cf038963096b4938f1eb5dec",
      "transactionIndex": "0x73",
      "blockHash": "0xf0f250b5e3d0709a1ba357f92f88cdef436fbc5eafa1f276054f3bfb7004709d",
      "blockNumber": "0x9dfba6",
      "gasUsed": "0x1a6bb",
      "effectiveGasPrice": "0x1374a3",
      "from": "0xeb9dec5fffc5ecd8cd5a337895b3a7173c0ac5a1",
      "to": "0xd3b7a4128eaeb87589d9a6a840498962565d46b8",
      "contractAddress": null
    },
    {
      "status": "0x1",
      "cumulativeGasUsed": "0x186f98c",
      "logs": [
        {
          "address": "0xf7124375476191009f3c1ca7088c16a7cd91e442",
          "topics": [
            "0x9d910c9fad7f6caea97ddebdae1c9588dcbeee40ac58fbea43811e3554b6d727",
            "0x00000000000000000000000022e9780b0263cc6e1e3611f67f3607e34b8d4f55"
          ],
          "data": "0x",
          "blockHash": "0x0a14a32423f2476e009615c6d36abd5aca00966ce13eb1e2771c9fa4a4a45cf2",
          "blockNumber": "0x9dfba7",
          "blockTimestamp": "0x69a2b04c",
          "transactionHash": "0xcfd456d2cab1bd857585555507b6f93677bcea9315cace6ac5d9934de57ff52e",
          "transactionIndex": "0x7f",
          "logIndex": "0x1a8",
          "removed": false
        },
        {
          "address": "0xd3b7a4128eaeb87589d9a6a840498962565d46b8",
          "topics": [
            "0xa74c8847d513feba22a0f0cb38d53081abf97562cdb293926ba243689e7c41ca"
          ],
          "data": "0x8284289bc0d52a5b2bf01b823026dc04cf34ac1b04bf3909a40d4e920b74854a",
          "blockHash": "0x0a14a32423f2476e009615c6d36abd5aca00966ce13eb1e2771c9fa4a4a45cf2",
          "blockNumber": "0x9dfba7",
          "blockTimestamp": "0x69a2b04c",
          "transactionHash": "0xcfd456d2cab1bd857585555507b6f93677bcea9315cace6ac5d9934de57ff52e",
          "transactionIndex": "0x7f",
          "logIndex": "0x1a9",
          "removed": false
        }
      ],
      "logsBloom": "0x00000000000000000000000000100000000000000000000040000000000000000000000000000000000000000000000000000000000000000000000000000000000000000000000010000000000000000000000000040000000000000000000000000000000000000000000000000020000000000000000200000000000000000000000000100000000000000000000000000000000000000000000000000000000000000000000000000010000001000000000020000000000000000000000000000400000000000000000000000000000000000000000000000000000040040000000000002000002000000000000000000000000000000000000000000000",
      "type": "0x2",
      "transactionHash": "0xcfd456d2cab1bd857585555507b6f93677bcea9315cace6ac5d9934de57ff52e",
      "transactionIndex": "0x7f",
      "blockHash": "0x0a14a32423f2476e009615c6d36abd5aca00966ce13eb1e2771c9fa4a4a45cf2",
      "blockNumber": "0x9dfba7",
      "gasUsed": "0x203dc",
      "effectiveGasPrice": "0x1374a2",
      "from": "0xeb9dec5fffc5ecd8cd5a337895b3a7173c0ac5a1",
      "to": "0xd3b7a4128eaeb87589d9a6a840498962565d46b8",
      "contractAddress": null
    },
    {
      "status": "0x1",
      "cumulativeGasUsed": "0xee0fc4",
      "logs": [
        {
          "address": "0xf7124375476191009f3c1ca7088c16a7cd91e442",
          "topics": [
            "0x33c27d08ddd6cb9830b4dc83ccd96d57c842bd0cbaf6b1352c2c13577cfed12a",
            "0x000000000000000000000000000000000000000000000000000000e8d4a51000"
          ],
          "data": "0x",
          "blockHash": "0xcb23dde42a664bd4e7f031159624e601fa486071afdd06c7480db697282e2957",
          "blockNumber": "0x9dfba8",
          "blockTimestamp": "0x69a2b058",
          "transactionHash": "0xe78ded6ba33b931ed41cd60a076a8f5a1073627381eacf764a000eec6af6786b",
          "transactionIndex": "0x59",
          "logIndex": "0x146",
          "removed": false
        },
        {
          "address": "0xd3b7a4128eaeb87589d9a6a840498962565d46b8",
          "topics": [
            "0xa74c8847d513feba22a0f0cb38d53081abf97562cdb293926ba243689e7c41ca"
          ],
          "data": "0xf52a11f5698fa4645c4f0e7b37b28e23183550c9f3d698d488864de82353d161",
          "blockHash": "0xcb23dde42a664bd4e7f031159624e601fa486071afdd06c7480db697282e2957",
          "blockNumber": "0x9dfba8",
          "blockTimestamp": "0x69a2b058",
          "transactionHash": "0xe78ded6ba33b931ed41cd60a076a8f5a1073627381eacf764a000eec6af6786b",
          "transactionIndex": "0x59",
          "logIndex": "0x147",
          "removed": false
        }
      ],
      "logsBloom": "0x00000000000000000000000000000000000000000000000000000000000000000000000000000000000000000000000000000000000000000000000000000000000000000000000000000000000000000000000000040000000000000000000000000000000040000000000000000000000000000000000200000080000000000000000000100000000000000000000000000000000000000000000000000000000000000000000000000010000001000001000000000000000000000000000000040400000000000000000000000000000000000000000000000000000040000000000000002000002000100000004000000000000000000000000000000000",
      "type": "0x2",
      "transactionHash": "0xe78ded6ba33b931ed41cd60a076a8f5a1073627381eacf764a000eec6af6786b",
      "transactionIndex": "0x59",
      "blockHash": "0xcb23dde42a664bd4e7f031159624e601fa486071afdd06c7480db697282e2957",
      "blockNumber": "0x9dfba8",
      "gasUsed": "0x20328",
      "effectiveGasPrice": "0x1374a2",
      "from": "0xeb9dec5fffc5ecd8cd5a337895b3a7173c0ac5a1",
      "to": "0xd3b7a4128eaeb87589d9a6a840498962565d46b8",
      "contractAddress": null
    },
    {
      "status": "0x1",
      "cumulativeGasUsed": "0x133accd",
      "logs": [
        {
          "address": "0xf7124375476191009f3c1ca7088c16a7cd91e442",
          "topics": [
            "0xcf15c8aaf5ed273343f52c46b79e63fddfae46765dde766237b5fc2c281ac752"
          ],
          "data": "0x",
          "blockHash": "0x8709529a83bc35436c7e82a31c3a396489e08e654958ec1dc021603ceb57bc00",
          "blockNumber": "0x9dfba9",
          "blockTimestamp": "0x69a2b064",
          "transactionHash": "0x81ac01c878377ec37d1559980538f35a3315292a5d38d6a3588d9ee7891adfb2",
          "transactionIndex": "0x84",
          "logIndex": "0x1c0",
          "removed": false
        },
        {
          "address": "0xd3b7a4128eaeb87589d9a6a840498962565d46b8",
          "topics": [
            "0xa74c8847d513feba22a0f0cb38d53081abf97562cdb293926ba243689e7c41ca"
          ],
          "data": "0x3ee0249d8e603d81e28e554e33e82cd8a04a78d219492421c536ade98ae31752",
          "blockHash": "0x8709529a83bc35436c7e82a31c3a396489e08e654958ec1dc021603ceb57bc00",
          "blockNumber": "0x9dfba9",
          "blockTimestamp": "0x69a2b064",
          "transactionHash": "0x81ac01c878377ec37d1559980538f35a3315292a5d38d6a3588d9ee7891adfb2",
          "transactionIndex": "0x84",
          "logIndex": "0x1c1",
          "removed": false
        }
      ],
      "logsBloom": "0x00000000000000000000000000000000000000000000000000000000000100000000000000000000000000000000000000000000000000000000000000000000000000000000000000000000000000000000000000040000000000000000000000000000000000000000000000000000000000000000000200000000000000000000000000100000000000000000000000000000000000000000000000000000040000000008000000000010000001000000000000000000000000000000000000000400000000000000000000000000000000000000000000000000000040000000000000002000002000000000000000000000000000000000000000000000",
      "type": "0x2",
      "transactionHash": "0x81ac01c878377ec37d1559980538f35a3315292a5d38d6a3588d9ee7891adfb2",
      "transactionIndex": "0x84",
      "blockHash": "0x8709529a83bc35436c7e82a31c3a396489e08e654958ec1dc021603ceb57bc00",
      "blockNumber": "0x9dfba9",
      "gasUsed": "0x1ad5c",
      "effectiveGasPrice": "0x1374a1",
      "from": "0xeb9dec5fffc5ecd8cd5a337895b3a7173c0ac5a1",
      "to": "0xd3b7a4128eaeb87589d9a6a840498962565d46b8",
      "contractAddress": null
    }
  ],
  "libraries": [],
  "pending": [],
  "returns": {
    "0": {
      "internal_type": "struct DeployAllWithConfig.Deployment",
      "value": "(0xD3B7a4128EaeB87589D9A6a840498962565D46b8, 0x22E9780B0263cC6e1E3611F67F3607e34b8D4f55, 0xd6A742Fb016a3850414f9bffdE1e14873882cC48, 0x79F2eB96AD7a5859007565B23B7CBB9c1217Be40, 0xF7124375476191009F3C1ca7088C16a7cd91E442, 0x4c0A6060908a5bdbDCBC38FF04C570c2f6bfCA07, 0xA354f92aD2Cbbb99960d6998d6C6D0F770513587, 0xf74325F78eE5d80803bDf749957d6AB9A25fD005, 0x81cbB00e5F4B5f3846c18eE9F71E11a7050AaB2C)"
    }
  },
  "timestamp": 1772269670675,
  "chain": 11155111,
  "commit": "f12226d"
}